:100000000C94612C0C94922C0C94922C0C94922CA9
:100010000C94922C0C94922C0C94922C0C94922C68
:100020000C94922C0C94922C0C94922C0C94922C58
:100030000C94922C0C94922C0C94922C0C94922C48
:100040000C94922C0D94E20E0C94922C0C94922C05
:100050000C94922C0C94922C0D9404070C9419EF90
:100060000C94922C0C94A4660C946E660C94922CB6
:100070000C94922C0C94922C0C94922C0C94922C08
:100080000C94F2420C94922C0C94922C0C94922C82
:100090000C94922C0C94922C0C94922C0C94922CE8
:1000A0000C94922C0C94922C0C94C4420C94922C90
:1000B0000C94922C0C94922C0C94922C0C94922CC8
:1000C0000C94922C0C94922C0C94922C0C94922CB8
:1000D0000C94922C0C94922C0C94922C0C94922CA8
:1000E0000C94922C084AD73B3BCE016E84BCBFFDDA
:1000F000C12F3D6C74319ABD56833DDA3D00C77FF8
:1001000011BED9E4BB4C3E916BAAAABE0000008090
:100110003F05A84CCDB2D44EB93836A9020C50B91F
:10012000918688083CA6AAAA2ABE000000803F004B
:100130000C9483AC0C94C88B0C946CED0C94D7434A
:100140000C94B2430C940A830C946FB00C94D3B506
:100150000C94889B0C9418670C94908B0C9447AC6F
:100160000C94D0B50C94AC7F0C943A800C9467EC52
:100170000C94727F0C9477AC0D94B13C0C94E5B563
:100180000C9454EC0C94952C0C947DAC0C94B443CE
:100190000C948AED0C94C5990C9448EC0C9441ACE9
:1001A0000C9479B00C944DAC0C941EB90C9459AAD3
:1001B0000C9498890C94EFB50C94D9B50C943381B8
:1001C0000C9458ED0C9445820C94E6830C9492A701
:1001D0000C94D6B50C943FED0C9426800C94C08BF7
:1001E0000C942F670C94477F0C94BE820D94B40E30
:1001F0000C9476ED0C94D8820C9430810C943B993D
:100200000C94D3820C94D67F0C9479EC0C94CE820F
:100210000C9434B30C946FEC0C9477820C9435C628
:100220000C9450EC0C9482EC0C9411ED0C946BAC8F
:100230000C9487EC0C94988B0C94DCB50C94DFA98F
:100240000C94FB810C94DC830C94657F0C943767D1
:100250000C947D830C940E440C948DAC0C94C7B517
:100260000C94D2830C9475EC0C94F2820C9433674A
:100270000C94B9840C947DEC0C94A08B0C946AB013
:100280000C9482B00C9488C50C9435ED0C947B943E
:100290000C94D5900C942B670C945DBF0C94EAB52C
:1002A0000D9433440C94DF810C9441830C942067AB
:1002B0000C94B88B0C9412440C94D9430C9474B0E5
:1002C0000C944CEC0C94448F0C9457EC0C94432FEE
:1002D0000C94A88B0C94D88B0C942BED0C944C7F25
:1002E0000C9419A20C946BEC0C947A9A0C94EA92EC
:1002F0000C9483EC0C9480ED0C9442EC0C94DB4356
:100300000C9490840C94E0AE0C9453AC0C949C83AD
:100310000C94C9820C94279D0C9436A00C944880B0
:100320000C9433440C943D670C9437440C94B28184
:100330000C94E5AE0C9443830C94E5810C947F837C
:100340000C9427670C94B0C50C94E2B50C94F2B5EC
:100350000C9460830C94B08B0C9471AC0C94D98188
:100360000C940A670C94DF660C94942C0C941C82F9
:100370000C941BED0C94DAA50C94F8EC0C9459AC8D
:100380000C9410440C94ECB50C94DFB50C9453FD14
:100390000C945FAC0C94F3890C9489C50C94D2979F
:1003A0000C9486430C94D08B0C9407ED0C94967FA0
:1003B0000C94F2960C9461EC0C94EA7F0C94C27F3E
:1003C0000C9462ED0C94F0EC0C9465AC0C9470827F
:1003D0000C94A4810C94D3810C9423ED0C945DECCB
:1003E0000C94FC820C9449ED0C9479820C94038457
:1003F0000C94FDEC0C94FE7F0C9434B90C94128098
:100400000C947E9E0C94DBAE0C94E1A80C94178C9B
:100410000C9435440C94278F0C9480820C949F820A
:100420004E414E494E495459494E46CDCCCC3D0AD9
:10043000D7233C17B7D13877CC2B329595E6241FBC
:10044000B14F0A000020410000C84200401C462075
:10045000BCBE4CCA1B0E5AAEC59D74434F4D4D5584
:100460004E49434154494F4E0044525952554E0053
:100470004552524F525300494E464F004543484F54
:10048000004572726F722077726974696E672074AA
:100490006F20454550524F4D210A00627573793ADD
:1004A0002070617573656420666F7220696E707567
:1004B000740A00627573793A2070617573656420FF
:1004C000666F7220757365720A00627573793A20DF
:1004D00070726F63657373696E670A004B494C4CA9
:1004E00020636175736564206279204B494C4C2010
:1004F000627574746F6E2F70696E0A004B494C4CB4
:100500002063617573656420627920746F6F206D5C
:1005100075636820696E6163746976652074696DBE
:1005200065202D2063757272656E7420636F6D6D2A
:10053000616E643A2000506C65617365207265736A
:100540006574005052494E5445522048414C544520
:100550004400706F7765726F6666004B494C4C457E
:10056000442E20005072696E7465722068616C744C
:1005700065642E206B696C6C28292063616C6C6546
:1005800064210A0053544F505045442E20005072AD
:10059000696E7465722073746F7070656420647521
:1005A0006520746F206572726F72732E20466978B1
:1005B00020746865206572726F7220616E642075A8
:1005C0007365204D39393920746F207265737461F9
:1005D00072742E202854656D706572617475726531
:1005E0002069732072657365742E205365742069C9
:1005F00074206166746572207265737461727469C7
:100600006E67290A006563686F3A004572726F72FF
:100610003A0042696C696E656172204C6576656C62
:10062000696E6720477269643A0A0053544F50203C
:1006300063616C6C65642062656361757365206FCE
:100640006620424C546F756368206572726F722029
:100650002D20726573746172742077697468204DFF
:100660003939390A0053544F502063616C6C65640A
:100670002062656361757365206F6620424C546F1C
:10068000756368206572726F72202D2072657374B5
:100690006172742077697468204D3939390A0048CD
:1006A0006F74656E6420746F6F20636F6C640A00F2
:1006B000507265737320627574746F6E20286F7248
:1006C000204D3130382920746F20726573756D6547
:1006D0000A00496E736572742066696C616D656E9F
:1006E0007420616E64207072657373206275747417
:1006F0006F6E20286F72204D313038290A005072F9
:1007000065737320627574746F6E20286F72204D4C
:100710003130382920746F2068656174206E6F7ADB
:100720007A6C650A00706175736564004D3630300F
:100730003A20546F6F20636F6C6400486F74656E6D
:100740006420746F6F20636F6C640A007265737548
:100750006D656400496E736572742066696C616DC5
:10076000656E7420616E64207072657373206275AB
:1007700074746F6E20286F72204D313038290A0052
:100780004F46460A0046616465204865696768749B
:100790002000426564204C6576656C696E672000B8
:1007A0004661696C656420746F20656E61626C657A
:1007B00020426564204C6576656C696E670A004965
:1007C0006E76616C6964206D6573682E0A0020285E
:1007D00044525952554E2900473239204175746FA1
:1007E00020426564204C6576656C696E67003F2029
:1007F000284C2C522C462C4229206F7574206F6691
:1008000020626F756E64732E0A003F285629657248
:10081000626F7365206C6576656C20697320696D05
:10082000706C61757369626C652028302D34292ED7
:100830000A00426164205A2076616C75650A004E98
:100840006F2062696C696E65617220677269640A03
:100850000020284E6F7420796574206D6561737572
:100860007265642900202041766572616765206D9C
:1008700065617375726564206261636B6C61736836
:1008800020286D6D293A002020536D6F6F746869C0
:100890006E6720286D6D293A2020202020202020FE
:1008A000202020202020202020530020204261638F
:1008B0006B6C6173682044697374616E6365202892
:1008C0006D6D293A2020202020202020002028465D
:1008D000312E30203D2066756C6C2C2046302E3039
:1008E000203D206E6F6E65290A002020436F7272D2
:1008F000656374696F6E20416D6F756E742F46610C
:1009000064652D6F75743A202020202046006163B5
:10091000746976653A0A00696E004261636B6C61C6
:10092000736820436F7272656374696F6E2000573D
:1009300041524E494E4721204C6F77205A204A653C
:10094000726B206D6179206C65616420746F207515
:100950006E77616E746564207061757365732E0ABD
:1009600000000020002300260029002C002F003268
:100970000000010000030106010901473238002090
:10098000496E76616C69642065787472756465720D
:100990002000536C6565702E2E2E00486F6D65200B
:1009A00058592066697273740A00486F6D65205843
:1009B0005920666972737400205A3A200020593A0F
:1009C000200042656420583A20004D65736820700D
:1009D0006F696E742063616E6E6F74206265207241
:1009E00065736F6C7665640A00202046726F6E74C2
:1009F0003A200020204C6566743A20002020546F75
:100A0000703A200053696465733A0A00205A004323
:100A1000656E7465723A0A002020546F703A2000A7
:100A2000202046726F6E743A200020204C65667458
:100A30003A20004261636B6C6173683A0A004E6F42
:100A40007A7A6C6520546970204F75746572204401
:100A5000696D656E73696F6E733A0A00205A0020E3
:100A6000506F736974696F6E616C204572726F723A
:100A70003A0A00436C69636B20746F20726573756A
:100A80006D652E2E2E004E6F206D6F76652E004503
:100A90006E642066696C65206C6973740A00426537
:100AA00067696E2066696C65206C6973740A00283A
:100AB0006E6F2066696C65290043757272656E748D
:100AC0002066696C653A20005344207072696E7428
:100AD000696E67206279746520004E6F74205344FC
:100AE000207072696E74696E670A002E0A00446590
:100AF0006C6574696F6E206661696C65642C204654
:100B0000696C653A200046696C652064656C6574A3
:100B100065643A002569730025696D2025697300B5
:100B20002569682025696D20256973002569642081
:100B30002569682025696D2025697300256979205C
:100B4000256964202569682025696D202569730061
:100B50005072696E742074696D653A200050726F2E
:100B60007465637465642050696E0A0025301D0C3D
:100B70001E282924311C0B184527232F1B0A444308
:100B8000222B1A4142043803FF36040806060001EE
:100B9000486F74656E6420436F6F6C696E672E2EAC
:100BA0002E00486F74656E642048656174696E67D5
:100BB0002E2E2E006F6666007C0477047004690494
:100BC0005B0444454255473A004D313133205300D0
:100BD0006F6B004C756C7A426F74204D696E6920A2
:100BE0004C4344204F46462E004348414D42455217
:100BF0005F54454D5045524154555245004D4F5458
:100C0000494F4E5F4D4F44455300544845524D4166
:100C10004C5F50524F54454354494F4E0041555438
:100C20004F5245504F52545F53445F5354415455B3
:100C3000530050524F4D50545F535550504F5254E3
:100C400000454D455247454E43595F50415253452B
:100C50005200434153455F4C494748545F42524913
:100C60004748544E45535300544F47474C455F4CFB
:100C7000494748545300534F4654574152455F50DB
:100C80004F574552004255494C445F5045524345E9
:100C90004E54004C4556454C494E475F44415441E3
:100CA000005A5F50524F4245004155544F4C4556F3
:100CB000454C005052494E545F4A4F420050524FEB
:100CC0004752455353004155544F5245504F52548B
:100CD0005F54454D5000564F4C554D455452494375
:100CE00000454550524F4D0042494E4152595F46D2
:100CF000494C455F5452414E53464552005345526C
:100D000049414C5F584F4E5F584F46460046495246
:100D10004D574152455F4E414D453A4D61726C69A8
:100D20006E20204649524D574152455F5645525319
:100D3000494F4E3A322E302E302E31343420455821
:100D40005452554445525F545950453A53696E6761
:100D50006C65457874727564657220534F555243C3
:100D6000455F434F44455F55524C3A687474707305
:100D70003A2F2F636F64652E616C6570686F626ACD
:100D8000656374732E636F6D2F646966667573692E
:100D90006F6E2F4D41524C494E2050524F544F438D
:100DA0004F4C5F56455253494F4E3A312E30204DED
:100DB000414348494E455F545950453A4C756C7A09
:100DC000426F74204D696E69204C4344204558544D
:100DD00052554445525F434F554E543A3120555574
:100DE00049443A30383366363866312D303238650A
:100DF0002D343934632D393865312D6632653064D0
:100E0000666165653961350A002F2F20004D313448
:100E10003520533C696E6465783E206F7574206F91
:100E2000662072616E67652028302D31290A002006
:100E30005400205200416363656C65726174696F90
:100E40006E3A2050004F4646004F4E00205A002078
:100E50005900580020204D61783A2000205A002087
:100E60005900580020204D696E3A2000536F667477
:100E700020656E6473746F70733A200020466C6F47
:100E8000773A20003A200020536572766F200020C8
:100E90006F7574206F662072616E67650A00536516
:100EA00072766F200050726F6265205A204F66661E
:100EB0007365743A200020643A0020693A0020707B
:100EC0003A00496E76616C69642065787472756465
:100ED00065720A0020643A0020693A0020703A00E6
:100EE00064697300656E0043290A0061626C656481
:100EF00020286D696E2074656D702000436F6C64EE
:100F00002065787472756465732061726520004D88
:100F100065736820706F696E742063616E6E6F74A4
:100F2000206265207265736F6C7665640A004D34CB
:100F3000323120696E636F72726563742070617202
:100F4000616D657465722075736167650A0045455A
:100F500050524F4D204F4B0A003F5A206F7574205E
:100F60006F662072616E676520282D323020746FA5
:100F7000203230290A0050726F6265205A204F6675
:100F8000667365743A20003F4B2076616C7565206E
:100F90006F7574206F662072616E67652028302D32
:100FA0003130292E0A00416476616E6365204B3D25
:100FB00000496E76616C6964206578747275646549
:100FC000720A004361703A0047322F473320626152
:100FD0006420706172616D65746572730A00220A23
:100FE00000656E7175657565696E67202200204227
:100FF000002050006F6B00526573656E643A2000EC
:1010000053544F505045442E20005072696E746501
:10101000722073746F707065642064756520746FDE
:10102000206572726F72732E20466978207468652D
:10103000206572726F7220616E6420757365204D39
:1010400039393920746F20726573746172742E207F
:101050002854656D706572617475726520697320BE
:1010600072657365742E20536574206974206166FF
:101070007465722072657374617274696E67290A8F
:10108000004E6F20436865636B73756D20776974DC
:1010900068206C696E65206E756D6265722C204CDF
:1010A000617374204C696E653A20004E6F2043686E
:1010B00065636B73756D2077697468206C696E6504
:1010C000206E756D6265722C204C617374204C69C2
:1010D0006E653A2000636865636B73756D206D699A
:1010E000736D617463682C204C617374204C696E5D
:1010F000653A20004C696E65204E756D6265722000
:101100006973206E6F74204C617374204C696E6536
:10111000204E756D6265722B312C204C61737420EA
:101120004C696E653A20004D313130004D3331004D
:1011300053442072656164206572726F720A0044C4
:101140006F6E65207072696E74696E672066696C77
:10115000650A0020573A0042656420636F6F6C692E
:101160006E672E2E2E004265642068656174696E7C
:10117000672E2E2E0023646566696E652044454601
:1011800041554C545F0000626564004B6420004B85
:101190006920004B702000504944204175746F74E1
:1011A000756E652066696E69736865642120507587
:1011B0007420746865206C617374204B702C204B14
:1011C0006920616E64204B6420636F6E7374616E7E
:1011D00074732066726F6D2062656C6F7720696E24
:1011E000746F20436F6E66696775726174696F6EA4
:1011F0002E680A00504944204175746F74756E65FD
:10120000206661696C6564212074696D656F757411
:101210000A00486F74656E6420544845524D414C35
:101220002052554E415741590042454420544845AB
:10123000524D414C2052554E41574159005468651A
:10124000726D616C2052756E6177617900486F74C0
:10125000656E642048656174696E67206661696CBB
:101260006564004265642068656174696E67206624
:1012700061696C65640048656174696E67206661C8
:10128000696C656400504944204175746F74756ED3
:1012900065206661696C6564212054656D706572B6
:1012A000617475726520746F6F20686967680A00E1
:1012B000204B643A2000204B693A2000204B703AC2
:1012C00020000A20436C61737369632050494420F5
:1012D0000A002054753A2000204B753A2000206DFA
:1012E00061783A2000206D696E3A200020643A202F
:1012F0000020626961733A200050494420417574AE
:101300006F74756E652073746172740A005049447D
:10131000204175746F74756E65206661696C6564D3
:10132000212054656D706572617475726520746FEB
:101330006F20686967680A00504944204175746FDE
:1013400074756E65206661696C6564212042616414
:10135000206578747275646572206E756D62657251
:101360000A004572723A207574663820666F6E7492
:10137000206E6F7420696E697469616C697A656446
:101380002E004572723A207574663820666F6E744E
:10139000206E6F7420696E697469616C697A656426
:1013A0002E004572723A207574663820666F6E742E
:1013B000206E6F7420696E697469616C697A656406
:1013C0002E001FFFFFFFFFFFFF600000000001FF76
:1013D000400000000000FF8000000000007F83CF7D
:1013E00000000C303F87FF80000C301F86798000A2
:1013F0000C000F8C30C7838C30E78C30CFC7CC31DA
:10140000F38C30DCECEC33B98C30D86C6C33198C49
:1014100030D06C0C33198C30D86C0C33198C30DC18
:101420006C0E3B198C30CF7C079F198C30C77C0326
:101430008F1940000000000002600000000000065C
:101440001FFFFFFFFFFFF800060900FE06018902EB
:10145000FE20FFFE07FE06FE000000060007010654
:1014600006060200808080800080030303060103DB
:10147000A0A0A00507070600FF5050F850F85050F4
:101480000509090600FE2070A8A07028A870200693
:1014900008080600FF40A848102048540805070720
:1014A0000600FF60909060989068010303060203B5
:1014B0008080800207070602FF4080808080804095
:1014C0000207070602FF80404040404080050505B6
:1014D0000600008850F85088050505060000202009
:1014E000F820200204040602FEC0404080050101ED
:1014F000060002F8020202060200C0C00406060648
:101500000100101020408080040606060100609053
:101510009090906003060606010040C0404040E005
:101520000406060601006090102040F0040606063E
:101530000100F020601010E00506060600001030E3
:101540005090F810040606060100F080E01010E04C
:101550000406060601006080E0909060040606061E
:101560000100F010102040400406060601006090C3
:101570006090906004060606010060909070106014
:10158000020505060200C0C000C0C002070706022F
:10159000FEC0C000C0404080050505060000186080
:1015A000806018050303060001F800F8050505062C
:1015B0000000C0300830C00407070601006090102A
:1015C000604000400506060600007090A8B08070DC
:1015D000050606060000205088F8888805060606DD
:1015E0000000F088F08888F004060606010060908C
:1015F00080809060040606060100E090909090E0E4
:10160000040606060100F080E08080F0040606066D
:101610000100F080E08080800406060601006090F2
:1016200080B090600406060601009090F0909090C3
:10163000030606060100E040404040E005060606BD
:10164000000038101010906004060606010090A0FB
:10165000C0A090900406060601008080808080F083
:1016600005060606000088D8A8A88888040606068D
:10167000010090D0B090909005060606000070889A
:1016800088888870040606060100E09090E080805B
:101690000407070601FF609090D0B06010040606B2
:1016A000060100E09090E0909004060606010060BC
:1016B0009040209060050606060000F820202020BB
:1016C00020040606060100909090909060040606A3
:1016D000060100909090F060600506060600008804
:1016E00088A8A8D888050606060000885020205043
:1016F000880506060600008888502020200406067B
:10170000060100F010204080F0030606060100E00C
:1017100080808080E0040606060100808040201062
:1017200010030606060100E020202020E005030348
:101730000600032050880501010600FEF80202029F
:1017400006020480400404040601007090907004B6
:1017500006060601008080E09090E0040404060183
:1017600000708080700406060601001010709090D2
:101770007004040406010060B0C07004060606018F
:1017800000205040E040400406060601FE609090B4
:101790007010600406060601008080E090909003BF
:1017A00006060601004000C04040E00308080601AC
:1017B000FE200060202020A04004060606010080D4
:1017C00080A0C0A090030606060100C04040404033
:1017D000E0050404060000D0A8A88804040406015B
:1017E00000E0909090040404060100609090600472
:1017F00006060601FEE09090E080800406060601E1
:10180000FE709090701010040404060100A0D080B7
:101810008004040406010070C030E00406060601DE
:10182000004040E0405020040404060100909090E5
:101830007004040406010090906060050404060032
:101840000088A8A850040404060100906060900479
:1018500006060601FE909090709060040404060154
:1018600000F02040F00307070601002040408040C0
:1018700040200107070602FF80808080808080036F
:101880000707060100804040204040800402020615
:10189000010350A0FFFFFFFFFFFFFFFFFFFFFFFF60
:1018A000FFFFFFFFFFFFFFFFFFFFFFFFFFFFFFFF48
:1018B000FFFFFFFFFF00000006000701060606020B
:1018C000008000808080800406060601FF2070A052
:1018D000A070200507070600FF304840F04040F8A0
:1018E000050505060000A8508850A8050606060054
:1018F000008850F820F8200107070602FF8080804A
:10190000008080800407070601FF708060906010EF
:10191000E0030101060105A0060707060000788420
:1019200094A494847803050506010160A06000E09A
:101930000505050600002850A050280403030601F1
:1019400000F01010040101060102F006070706006E
:10195000007884B4A4A48478040101060105F0048D
:1019600003030601026090600507070600FF2020C0
:10197000F8202000F803050506010140A02040E002
:10198000030505060101C0204020C0020202060234
:101990000440800405050601FF9090B0D080050644
:1019A0000606000078E8E86828280101010602021E
:1019B000800202020602FE40800305050601014086
:1019C000C04040E003050506010140A04000E005DD
:1019D0000505060000A0502850A00508080600FFD5
:1019E00040C04050703078100508080600FF40C025
:1019F0004050680810380508080600FFC020403035
:101A0000F030781004070706010020002060809065
:101A100060050707060000402020507088880507F1
:101A20000706000010202050708888050707060070
:101A300000205020507088880507070600002850B5
:101A4000205070888805070706000050002050705D
:101A500088880507070600002050205070888805F8
:101A6000060606000078A0F0A0A0B8040808060149
:101A7000FE609080809060204004070706010040CF
:101A800020F080E080F00407070601002040F0808D
:101A9000E080F00407070601002050F080E080F0AD
:101AA0000407070601005000F080E080F0030707FC
:101AB0000601008040E0404040E0030707060100C7
:101AC0002040E0404040E003070706010040A0E05E
:101AD000404040E0030707060100A000E04040400E
:101AE000E00506060600007048E84848700407074D
:101AF00006010050A090D0B09090040707060100A6
:101B0000402060909090600407070601002040602C
:101B1000909090600407070601002050609090901C
:101B20006004070706010050A060909090600407D1
:101B300007060100500060909090600505050600C2
:101B40000088502050880408080601FF1070B0B0CB
:101B5000D0D0E080040707060100402090909090CC
:101B600060040707060100204090909090600407F1
:101B7000070601002050909090906004070706012E
:101B8000005000909090906005070706000010201C
:101B9000885020202004060606010080E09090E096
:101BA000800406060601006090A0A090A00407072C
:101BB00006010040200070909070040707060100A5
:101BC000204000709090700407070601002050002C
:101BD0007090907004070706010050A0007090906C
:101BE000700406060601005000709090700407070C
:101BF000060100205020709090700504040600003B
:101C000070A8B0780406060601FE7080807020403F
:101C100004070706010040200060B0C070040707F9
:101C200006010020400060B0C070040707060100F4
:101C300020500060B0C0700406060601005000602D
:101C4000B0C070030707060100804000C04040E0BC
:101C5000030707060100204000C04040E0030707DB
:101C600006010040A000C04040E003060606010057
:101C7000A000C04040E0040707060100306010707B
:101C800090906004070706010050A000E09090903B
:101C900004070706010040200060909060040707D9
:101CA00006010020400060909060040707060100D4
:101CB0002050006090906004070706010050A000CB
:101CC00060909060040606060100500060909060ED
:101CD0000505050600002000F800200404040601A4
:101CE0000070B0D0E004070706010040200090908B
:101CF0009070040707060100204000909090700447
:101D00000707060100205000909090700406060618
:101D100001005000909090700409090601FE2040D7
:101D2000009090907090600408080601FE8080E0AA
:101D30009090E080800408080601FE50009090908A
:101D40007090606F6F6F00000047414D45204F5607
:101D5000455200107CFEFEFE44402480000031808D
:101D600000002480444004000E000E007FC0FFE00D
:101D7000FFE0FFE0FFE01FC07FF0DDD8FFF87FF05D
:101D800006000F001F8036C03FC0090016802940A2
:101D900006000F001F8036C03FC016802040108014
:101DA000104008801FC037607FF05FD050500D801A
:101DB000104048905FD077707FF01FC01040202007
:101DC0000F007FE0FFF0E670FFF0198036C0C030F2
:101DD0000F007FE0FFF0E670FFF0198036C0198039
:101DE0000A003B20454550524F4D20496E646578AE
:101DF0003A20005570646174696E67207A6F666678
:101E000073657420696E20454550524F4D3A20004D
:101E100001FC0007FF000F07800E01C00001C00099
:101E200000E00800E01C00E03E00E07F00E01C0055
:101E3000E00E00E00E01C00783C003FF8000FE003B
:101E400000FE0003FF800783C00E01C00E00E01CEF
:101E500000E07F00E03E00E01C00E00800E0000041
:101E6000E00001C00E01C00F078007FF0001FC0069
:101E70000E000E000E000E000E000E000E000E00F2
:101E80007FC03F801F000E00040004000E001F00F2
:101E90003F807FC00E000E000E000E000E000E00F0
:101EA0000E000E00FFFFFF7F80FFC0FFC0FFC07F5E
:101EB000807F80FFC0FFC0FFC03F001E000C0050AD
:101EC000726F6265205A204F666673657400450024
:101ED00045005A005A00585900585900416476612B
:101EE0006E6365642053657474696E6773004C6F2C
:101EF0006164206D6D004C6F6164206D6D00556EE6
:101F00006C6F6164206D6D00556E6C6F6164206D47
:101F10006D00416476616E6365204B0041647661BB
:101F20006E6365204B00416476616E636564205387
:101F3000657474696E6773004D33303320553120FA
:101F40004525692053256900504944204175746F27
:101F500074756E6500504944204175746F74756ED8
:101F60006500416476616E636564205365747469CD
:101F70006E6773005654726176206D696E00565418
:101F8000726176206D696E00566D696E00566D69DE
:101F90006E00566D6178204500566D6178204500D1
:101FA000566D6178205A00566D6178205A00566D42
:101FB0006178205900566D6178205900566D61781E
:101FC000205800566D6178205800416476616E6338
:101FD00065642053657474696E677300416D617840
:101FE000204500416D6178204500416D6178205A9F
:101FF00000416D6178205A00416D6178205900419F
:102000006D6178205900416D6178205800416D6103
:1020100078205800412D74726176656C00412D74F2
:10202000726176656C00412D726574726163740033
:10203000412D7265747261637400416363656C0065
:10204000416363656C00416476616E63656420532F
:10205000657474696E67730056652D6A65726B00EE
:1020600056652D6A65726B00567A2D6A65726B0033
:10207000567A2D6A65726B0056792D6A65726B000F
:1020800056792D6A65726B0056782D6A65726B0001
:1020900056782D6A65726B00416476616E63656483
:1020A0002053657474696E6773004573746570734B
:1020B0002F6D6D004573746570732F6D6D005A73CD
:1020C000746570732F6D6D005A73746570732F6D26
:1020D0006D005973746570732F6D6D00597374655D
:1020E00070732F6D6D005873746570732F6D6D0074
:1020F0005873746570732F6D6D00416476616E6303
:1021000065642053657474696E67730046696C6119
:102110006D656E740054656D70657261747572657D
:1021200000447269766520537472656E6774680046
:102130004261636B6C6173680053746570732F6DDB
:102140006D004A65726B00416363656C6572617412
:10215000696F6E0056656C6F6369747900436F6ECA
:1021600066696775726174696F6E00536D6F6F7425
:1021700068696E6700536D6F6F7468696E67005AA7
:10218000005A005900590058005800436F72726598
:102190006374696F6E00436F7272656374696F6E0A
:1021A000004D61696E00436D643A2053746F77008F
:1021B000436D643A204465706C6F7900436D643AF6
:1021C0002053656C662D5465737400436D643A202A
:1021D00053572D4D6F646500436D643A205265730B
:1021E000657400436F6E66696775726174696F6EBE
:1021F00000526573746F7265206661696C73616605
:1022000065004C6F61642073657474696E67730058
:1022100053746F72652073657474696E67730042DE
:102220004C546F7563680050726F6265205A204F7E
:10223000666673657400416476616E6365642053FD
:10224000657474696E6773004D61696E004D373057
:102250003220542564004D36303020423020542541
:1022600064004D373032203B2564004D373031203B
:10227000542564004368616E67652066696C616D12
:10228000656E74005072656865617420437573747F
:102290006F6D005072656865617420414253005053
:1022A00072656865617420504C41005072656865C4
:1022B000617420437573746F6D004261636B0050ED
:1022C00075726765206D6F726500456E6420666982
:1022D0006C616D656E74206368616E6765000043B4
:1022E00068616E67696E672046696C616D656E74C2
:1022F00000554E4C4F41442046494C414D454E54AB
:10230000004C4F41442046494C414D454E5400201D
:10231000204E6F7A7A6C653A200020005061726B13
:10232000696E672E2E2E00746F20737461727400B4
:1023300066696C616D656E74206368616E676500C7
:102340005761697420666F720066696C616D656EB5
:102350007420756E6C6F6164005761697420666FDC
:102360007200506C6561736520776169742E2E2E42
:10237000004E6F7A7A6C652068656174696E6700DB
:10238000746F2068656174206E6F7A7A6C65005096
:102390007265737320627574746F6E00746F20635E
:1023A0006F6E74696E756500616E6420707265731E
:1023B0007320627574746F6E00496E736572742059
:1023C00066696C616D656E740066696C616D656EE1
:1023D00074206C6F6164005761697420666F7200CD
:1023E000746F20726573756D65207072696E74000C
:1023F000507265737320627574746F6E00506C65F3
:1024000061736520776169742E000066696C616D87
:10241000656E742070757267650057616974206617
:102420006F7200536E346B3300496E76616465726F
:102430007300427269636B6F7574004D61696E0061
:1024400047616D6573004669726D776172652056EC
:10245000657273696F6E004D61696E003F00537461
:102460006F70207072696E74004261636B00537408
:102470006F70004D323520500A4D32340050726971
:102480006E742070617573656400506175736520AA
:102490007072696E7400726573756D65004D3234CB
:1024A000005072696E742066726F6D205344004351
:1024B00068616E67652053442063617264004D3229
:1024C000310041626F7574205072696E74657200DC
:1024D0004368616E67652066696C616D656E740046
:1024E0004368616E67652066696C616D656E740036
:1024F0004D36303020423000436F6E66696775722A
:102500006174696F6E0054656D7065726174757287
:1025100065004D6F76656D656E7400526573756DFF
:1025200065207072696E74004E6F205344206361A1
:1025300072640054756E650053746F702070726918
:102540006E74005061757365207072696E74004915
:102550006E666F2073637265656E004D6F766520E1
:1025600058004D6F76652059004D6F7665205A00F2
:10257000457874727564657220004578747275646C
:10258000657220004D6F7665205A004D6F7665208C
:1025900059004D6F76652058004D6F76656D656EFC
:1025A000740044697361626C652073746570706552
:1025B0007273004D38340046616465204865696770
:1025C0006874004661646520486569676874004FF7
:1025D0006666004F6E00426564204C6576656C69E6
:1025E0006E67004C6576656C206265640047323822
:1025F0000A473239004175746F2063616C696272F9
:10260000617465004D313137205374617274696EA5
:1026100067204175746F2D43616C696272617469E2
:102620006F6E0A54300A4D323138205431205834FC
:1026300033205930205A300A4732380A4731320A9B
:102640004D3131372043616C6962726174696E6724
:102650002E2E2E0A473432350A4D3530300A4D3190
:1026600031372043616C6962726174696F6E2064F6
:1026700061746120736176656400486F6D65205AEE
:1026800000473238205A00486F6D652059004732A4
:1026900038205900486F6D6520580047323820585F
:1026A000004175746F20686F6D6500473238004CCB
:1026B0006576656C2058206178697300004D6F76EF
:1026C000652061786973004D61696E003F00537445
:1026D000617274207072696E74200043616E63656C
:1026E0006C005072696E740043616E6E6F74206589
:1026F0006E746572207375626469723A2000022EEE
:102700002E004D61696E00436F6F6C646F776E00D1
:1027100046616E2073706565640046616E2073705B
:102720006565640042656400426564004E6F7A7AB4
:102730006C65004E6F7A7A6C65004D61696E00427F
:1027400061627973746570205800426162797374B4
:10275000657020590050726F6265205A204F66667E
:102760007365740042616279737465702059004228
:1027700061627973746570205800466C6F7700460B
:102780006C6F770046616E2073706565640046610A
:102790006E20737065656400426564004265640084
:1027A0004E6F7A7A6C65004E6F7A7A6C6500537062
:1027B000656564005370656564004D61696E002550
:1027C000753A2530327500253032753A253032752C
:1027D0000025756420253032753A25303275002089
:1027E0002020202020200020202020001FE020107A
:1027F0002010201010201020201020103030084011
:10280000048003001FE03FF03FF03FF01FE01FE0B7
:102810003FF03FF03FF00FC0078003003FFFF0386C
:10282000007030FC3020FC102078102030102C007C
:10283000D02E31D02F7BD02F7BD02E31D02C00D07A
:1028400020301020781020FC1030FC303800703F11
:10285000FFF03FFFF0380070318630238710278764
:10286000902F87D02F03D0203010207810207810A0
:102870002030102F03D02F87D02787902387103147
:1028800086303800703FFFF01FFFF81FFFF804107C
:102890004002082002082004104008208010410057
:1028A0001041000820800410400000001FFFF81FA6
:1028B000FFF8436172642072656D6F766564004352
:1028C00061726420696E736572746564004C756C26
:1028D0007A426F74204D696E692072656164792E49
:1028E000005072696E74696E672E2E2E00507269E8
:1028F0006E74207061757365640063616E63656CEE
:10290000005072696E742061626F727465640010A9
:1029100000C90210012C014001220170011801B010
:10292000010E01F00104015002FA00B002F0003083
:1029300003E600D003DC009004D2007005C800A0BC
:1029400006BE000008B400B009AA00D00BA00060C9
:102950000E960060118C000015820020197800C0CE
:102960001D6E00A0226400B0275A00902C50000079
:10297000314600E0343C0010383200903A280060C4
:102980003C1E00A03D1400803E0A00203F00004392
:10299000616E6E6F74206F70656E2073756264690E
:1029A00072200053442063617264206F6B0A006FD1
:1029B00070656E526F6F74206661696C65640A00A1
:1029C000766F6C756D652E696E6974206661696CD1
:1029D00065640A00534420696E6974206661696CFD
:1029E0000A004D3234004D3233202573005772698E
:1029F00074696E6720746F2066696C653A20002EDA
:102A00000A006F70656E206661696C65642C2046F3
:102A1000696C653A20002E0A006F70656E20666151
:102A2000696C65642C2046696C653A200046696CC7
:102A3000652073656C65637465640A002053697A68
:102A4000653A200046696C65206F70656E65643A72
:102A50002000667265736800646F696E67002066A7
:102A6000696C653A20004E6F772000454E44205334
:102A70005542524F5554494E450A002220706F73FB
:102A8000002220706172656E743A220053554252E2
:102A90004F5554494E452043414C4C207461726758
:102AA00065743A2200747279696E6720746F2063CE
:102AB000616C6C207375622D67636F646520666955
:102AC0006C6573207769746820746F6F206D616E18
:102AD00079206C6576656C732E204D4158206C65AD
:102AE00076656C2069733A310A002020506C616E63
:102AF0006E657242756666657242797465733A20D6
:102B0000002046726565204D656D6F72793A200030
:102B1000436F6D70696C65643A204F637420203791
:102B200020323032360A00207C20417574686F7282
:102B30003A2028416C657068204F626A656374733F
:102B400020496E632E2C204C756C7A426F7420479E
:102B50006974205265706F7369746F7279290A0005
:102B600000204C61737420557064617465643A2070
:102B700000322E302E302E3134340A004D61726C0A
:102B8000696E0020536F66747761726520526573B9
:102B900065740A00205761746368646F672052652A
:102BA0007365740A002042726F776E206F7574200F
:102BB00052657365740A002045787465726E616CA5
:102BC0002052657365740A00506F77657255700AFC
:102BD0000073746172740A006175746F25632E67E7
:102BE000006572726F722077726974696E67207403
:102BF0006F2066696C650A00446F6E6520736176AC
:102C0000696E672066696C652E0A004D3239004591
:102C10006E6473746F7073202563202563202563B1
:102C200020256300205A3A0020593A0020583A00E3
:102C3000656E6473746F7073206869743A2000471E
:102C400039310A4730205A323020463630300A4770
:102C500039300A4730205838302059313930204631
:102C6000333030300A4D313137205072696E742064
:102C700061626F727465642E0000000A0B02090C19
:102C80000D0E080703040100000000000000000012
:102C90000000000000000000000000000000000034
:102CA00000000000001211100000000000000000F1
:102CB0000000000000000000000000000000000014
:102CC0000000000000000000000000000000004DB7
:102CD0006F766520302E3032356D6D004D6F766524
:102CE00020302E316D6D004D6F766520316D6D0099
:102CF0004D6F76652031306D6D004D6F76652061CA
:102D000078697300486F74656E6420746F6F206318
:102D10006F6C6400457874727564657220004D6F45
:102D20007665205A004D6F76652059004D6F7665A7
:102D30002058004175746F6C6576656C206661691A
:102D40006C65640A004175746F6C6576656C20660D
:102D500061696C656400486F6D6520257325732576
:102D600073206669727374002066697273740A0056
:102D7000486F6D652000220A00556E6B6E6F776E8E
:102D800020636F6D6D616E643A20220000000000C8
:102D90000000000000000000000000000000000033
:102DA0000000000000000000000000000000000C17
:102DB000000000000000000C0000000000000012F5
:102DC00000000000000000230000000000000021BF
:102DD000000000000000004C800000000000005EC9
:102DE000800000000000009240000000000000A1F0
:102DF0004000000000000121200000000000027FD0
:102E0000900000000000020010000000000007FF1A
:102E1000F8000000000004000800000000000800A6
:102E20000400000000000800060000000000100080
:102E3000020000000000301E010000000000207FA2
:102E400081000000000041FFE0800000000043FC22
:102E5000F08000000000873B7840000000018EDB1E
:102E6000FC60000000010FEBCC20000000021FED11
:102E7000B610000000021FDEB6100000000439CDBD
:102E80007F080000000436E0FF08000000087EC054
:102E9000BB84000000187F005D86000000107FC02A
:102EA000ED82000000203CC07301000000203B3395
:102EB0007F01000000701BE77E03800000C81DEE4C
:102EC000DE04C00000880FDEDC04400001240FDFB8
:102ED0003C092000012607DBF8192000027203E7F5
:102EE000F0139000025101FFE02290000489007F5E
:102EF000802448000904801E004824000BFE400086
:102F000000DFF40010004000008002001FFFFFFF00
:102F1000FFFFFE00000000000000000000000000B5
:102F20000000000000000000000000001022103C23
:102F30003C0E1F0010221004221104001022100861
:102F400022110400102210083C110400102210105D
:102F50002211040010221020221104001E1C1E3C0D
:102F60003C0E040000000000000000000000000013
:102F70000000000000000000000000000000000051
:102F80000000000000000000000000000000000041
:102F90000000000000000000000000000000000031
:102FA0000000000000000000000000000000000021
:102FB0000000000000000000000000000000000011
:102FC0000000000000000000000020746F6F206C03
:102FD0006F6E6720657874727573696F6E2070729A
:102FE0006576656E7465640A0020636F6C642065A5
:102FF0007874727573696F6E2070726576656E7421
:1030000065640A00204500205A00205900204D39EF
:10301000322058002E0A006F70656E206661696C60
:1030200065642C2046696C653A200000002200256A
:103030000028002B002E00310034000201000005A2
:103040000108010B0100002100240027002A002DA7
:10305000003000330001010000040107010A0105EE
:10306000050505070508080808020202020A0A0801
:103070000804040404010101010101010103030327
:103080000303030303040707070C0C0C0C0C0C0CC4
:103090000C0202020206060606060606060B0B0BCB
:1030A0000B0B0B0B0B07070A0A0A0A0A0A05050590
:1030B0000404040808010210202008081020401011
:1030C00020408002010201080402010102040810EC
:1030D000204080804020100804020180040201800A
:1030E0004020100804020108040201010204081033
:1030F000204080010204081020408010080408804D
:103100001020400440801020400480486F74656E99
:103110006420544845524D414C2052554E41574130
:10312000590042454420544845524D414C20525587
:103130004E4157415900546865726D616C2052755B
:103140006E61776179002F2F616374696F6E3A0049
:1031500000060C00FE07022603BC017FFE08FE08E5
:10316000FE05080806000040F0C888889878100519
:103170000808060000C0F88888888888F8050505D2
:103180000600012030F830200508080600002070F5
:10319000F820202020E00509090600FF2070A8A8DB
:1031A000B888887020050606060001E08CEA8C8A43
:1031B0000A0509090600FFF8A88888888888A8F801
:1031C000050A0A0600FE205050505088A8A88870B2
:1031D00003030306000340A040FFFFFFFFFFFFFFC4
:1031E000FFFFFFFFFFFFFFFFFFFFFFFFFFFFFF00EE
:1031F00000000605FF01070706020080808080802E
:103200000080030303060105A0A0A0050606060032
:103210000050F85050F8500509090600FF2070A82A
:10322000A07028A87020050707060000C8C8102055
:1032300040989805070706000040A0A040A89068A5
:103240000103030602058080800309090601FF20AF
:1032500040408080804040200309090601FF8040F3
:103260004020202040408005070706000020A8706D
:103270002070A8200505050600012020F820200266
:1032800003030601FFC04080050101060003F802A8
:103290000202060100C0C005070706000008101062
:1032A00020404080050707060000708898A8C8885D
:1032B0007003070706010040C040404040E005079A
:1032C00007060000708808102040F8050707060070
:1032D00000F8081030088870050707060000103055
:1032E0005090F81010050707060000F880F0080855
:1032F0008870050707060000304080F08888700558
:103300000707060000F80810102020200507070610
:1033100000007088887088887005070706000070B4
:10332000888878081060020505060100C0C000C04A
:10333000C00206060601FFC0C000C04080030505AC
:103340000601012040804020050303060002F8002A
:10335000F8030505060101804020408005070706A7
:10336000000070881020200020050707060000706C
:1033700088B8A8B88070050707060000708888F82C
:10338000888888050707060000F04848704848F01C
:103390000507070600007088808080887005070791
:1033A000060000F04848484848F0050707060000B6
:1033B000F88080F08080F8050707060000F880801C
:1033C000F08080800507070600007088808098885C
:1033D00070050707060000888888F8888888030732
:1033E00007060100E04040404040E00507070600B6
:1033F0000038101010109060050707060000889034
:10340000A0C0A0908805070706000080808080800B
:1034100080F805070706000088D8A88888888805EE
:1034200007070600008888C8A89888880507070647
:10343000000070888888888870050707060000F0FB
:103440008888F080808005070706000070888888DB
:10345000A89068050707060000F08888F0A090880B
:103460000507070600007088807008887005070748
:10347000060000F820202020202005070706000075
:1034800088888888888870050707060000888888EB
:103490008850502005070706000088888888A8A85B
:1034A00050050707060000888850205088880507C7
:1034B0000706000088885020202020050707060006
:1034C00000F80810204080F80309090601FFE08099
:1034D000808080808080E0050707060000804040F3
:1034E000201010080309090601FFE02020202020F9
:1034F0002020E00503030600052050880501010691
:1035000000FEF803030306010580402005050506BB
:10351000000070087888780507070600008080F0B2
:10352000888888F005050506000070808088700591
:1035300007070600000808788888887805050506CA
:1035400000007088F08070050707060000304840D2
:10355000E04040400507070600FE7088888878082C
:10356000700507070600008080F0888888880307B8
:10357000070601004000C0404040E0040909060180
:10358000FE100030101010109060050707060000B4
:1035900080808890E09088030707060100C04040C3
:1035A000404040E0050505060000D0A8A8A8A805F1
:1035B0000505060000B0C8888888050505060000D6
:1035C00070888888700507070600FEF0888888F0F4
:1035D00080800507070600FE788888887808080537
:1035E0000505060000B0C8808080050505060000BE
:1035F00078807008F00507070600002020F82020DA
:1036000020180505050600008888889868050505C6
:103610000600008888885020050505060000888877
:10362000A8A8500505050600008850205088050709
:10363000070600FE888888502040800505050600A2
:1036400000F8102040F80309090601FF204040401F
:1036500080404040200109090602FF808080808070
:10366000808080800309090601FF8040404020409F
:1036700040408005030306000248A890FF010508AA
:1036800000FF060121023520FFFF07FF06FF0900AA
:1036900050221656808080800080153353A0A0A051
:1036A0000257575050F850F850500257572070A00A
:1036B0007028702013355580A040A0200247574045
:1036C000A0A040A0A0502513538080801226564011
:1036D00080808080401226568040404040800245D5
:1036E000559060F060900255552020F8202011334D
:1036F00053604080044151F011335340E040024692
:103700005610102040808012365640A0A0A0A04045
:1037100012365640C0404040E0024656609010606D
:1037200080F0024656F020601090600246562060FD
:10373000A0F02020024656F080E01090600246562D
:103740006080E0909060024656F0102020404002D9
:10375000465660906090906002465660909070105F
:1037600060122555C0C000C0C011365660600060B0
:103770004080123656204080804020034353F000A2
:10378000F012365680402020408012365640A0204D
:10379000400040015858304898A8A8904030024650
:1037A00056609090F09090024656E090E09090E045
:1037B000024656609080809060024656E09090905D
:1037C00090E0024656F080E08080F0024656F0809D
:1037D000E0808080024656609080B090600246563D
:1037E0009090F0909090123656E040404040E002B9
:1037F000465670202020A04002465690A0C0A0A0AF
:10380000900246568080808080F002465690F0F00C
:1038100090909002465690D0F0B0B090024656601C
:103820009090909060024656E09090E08080014732
:1038300057609090D0B06010024656E09090E090B3
:1038400090024656609040209060123656E040400C
:1038500040404002465690909090906002465690AC
:103860009090906060024656909090F0F0900246E2
:103870005690906060909002565688885020202084
:10388000024656F010204080F0123656E0808080CC
:1038900080E0024656808040201010123656E0200C
:1038A000202020E016325240A0014151F016225251
:1038B0008040024454709090700246568080E090A0
:1038C00090E0123454608080600246561010709070
:1038D000907002445460B0C060024656205040E0F0
:1038E000404001455560907010600246568080E06F
:1038F0009090901236564000C04040E0113757205B
:1039000000202020A040024656808090E090901237
:103910003656C040404040E0025454D0A8A8A80207
:103920004454E0909090024454609090600145555A
:10393000E090E08080014555709070101002445472
:10394000A0D0808012345460C020C002465640404F
:10395000E040502002445490909070123454A0A043
:10396000A04002545488A8A850024454906060902B
:103970000145559090709060024454F02040F00250
:103980004757304020C0204030221656808080802B
:103990008080024757C02040304020C0064252502D
:1039A000A0FFFFFFFFFFFFFFFFFFFFFFFFFFFFFF86
:1039B000FFFFFFFFFFFFFFFFFFFFFFFFFFFFFFFF17
:1039C000FFFF09005022165680008080808001464B
:1039D000562070A0A070200246562050E04050A013
:1039E00002555588705070880256568850F820F855
:1039F0002022175780808000808080024757708087
:103A0000E0907010E0173151A002565670A8C8C857
:103A1000A87014355560A06000E003435350A050D7
:103A2000123353E02020143151E002565670E8D88A
:103A3000E8D870173151E015335340A04012355586
:103A400040E04000E014355540A02040E0143555DA
:103A5000C020C020C0162252408001455590909051
:103A6000E08002565678E8E8682828241151801131
:103A70002252408014355540C04040E01435554036
:103A8000A04000E0034353A050A00247578080802D
:103A9000A060F0200247578080A0D010207002471D
:103AA0005780408060A0F02012365640004080A031
:103AB0004002475740206090F090900247572040C6
:103AC0006090F0909002475760906090F090900264
:103AD000475750A06090F090900247579000609038
:103AE000F0909002475760906090F0909002465698
:103AF00070A0A0F0A0B00147576090808090604017
:103B00000247574020F080E080F00247572040F005
:103B100080E080F00247576090F080E080F002473C
:103B2000579000F080E080F01237578040E040402E
:103B300040E01237572040E0404040E01237574005
:103B4000A0E0404040E0123757A000E0404040E095
:103B50000256567048E848487002475750A090D027
:103B6000B090900247574020609090906002475775
:103B700020406090909060024757609060909090D5
:103B80006002475750A060909090600247579000A5
:103B90006090909060123353A040A002465670B0DF
:103BA000B0D0D0E0024757402090909090600247FC
:103BB000572040909090906002475760909090906E
:103BC0009060024757900090909090600257571075
:103BD00020885020202002465680E09090E080020D
:103BE00046566090A0A090A00247574020007090D9
:103BF0009070024757204000709090700247572005
:103C000050007090907002475750A00070909070D4
:103C10000246565000709090700247576090607056
:103C2000909070025454F068B078113555608080DF
:103C3000604002475740200060B0C06002475720F4
:103C4000400060B0C06002475760900060B0C06044
:103C5000024656500060B0C060123757804000C026
:103C60004040E0123757204000C04040E012375734
:103C700040A000C04040E0123656A000C04040E0E6
:103C8000024757A040A01070906002475750A00014
:103C9000E09090900247574020006090906002476B
:103CA00057204000609090600247576090006090FD
:103CB000906002475750A000609090600246569076
:103CC00000609090601235554000E000400244547E
:103CD00070B0D0E0024757402000909090700247AB
:103CE000572040009090907002475760900090904D
:103CF0009070024656900090909070014858204075
:103D00000090907090600147578080E090E0808044
:103D10000147579000909070906001050700FE05E4
:103D200000FB01F220FFFE05FE05FE020040021529
:103D3000258080800080053242A0A002556550F8A1
:103D400050F8500146562070C030E0200255659072
:103D500010204048025565608068906805122280F6
:103D600080022535408080804002253580404040DB
:103D700080043343A040A003334340E0400122329B
:103D80004080043141E00211218002556508102075
:103D900040800245556090909060022535C04040BB
:103DA0004040024555E0106080F0024555E010604B
:103DB00010E00245552060A0F020024555F080E05B
:103DC00010E00245556080E09060024555F01020FB
:103DD000404002455560906090600245556090708B
:103DE000106003132380008002142480008080026E
:103DF00035452040804020033343E000E002354554
:103E00008040204080024555E0106000400255652A
:103E10007088B8A870024555609090F090024555A2
:103E2000E090E090E002354560808080600245557A
:103E3000E0909090E0023545E080E080E00235457A
:103E4000E080E080800245557080B090700245555A
:103E50009090F09090023545E0404040E00245559A
:103E6000301010906002455590A0C0A090023545DA
:103E700080808080E002556588D8A88888024555F2
:103E800090D0B0909002455560909090600245555A
:103E9000E09090E08001465660909090601002455E
:103EA00055E09090E09002455570806010E002353A
:103EB00045E040404040024555909090906002455A
:103EC000559090A0A04002556588A8A8A85002452A
:103ED000559090609090024555909070106002351A
:103EE00045E0204080E0022535C0808080C002553A
:103EF000658040201008022535C0404040C0053292
:103F00004240A0024151F0052232804002445470E8
:103F100090907002455580E09090E00234446080BB
:103F20008060024555107090907002445460B0C09B
:103F3000600235452040E040400046567090907049
:103F4000106002455580E090909002152580008019
:103F50008080002737400040404040800245558027
:103F600090A0E0900215258080808080025464F04B
:103F7000A8A8A8024454E090909002445460909005
:103F800060004656E09090E0808000465670909029
:103F9000701010023444A0C0808002445470C030BD
:103FA000E002354540E0404020024454909090703B
:103FB0000244549090A040025464A8A85050023487
:103FC00044A04040A000465690909070106002447B
:103FD00054F02040F00235456040804060021525D5
:103FE0008080808080023545C0402040C00542521C
:103FF00050A0FFFFFFFFFFFFFFFFFFFFFFFFFFFFDF
:10400000FFFFFFFFFFFFFFFFFFFFFFFFFFFFFFFFC0
:10401000FFFFFF020040FFFFFFFFFFFFFFFFFFFF6B
:10402000FFFFFFFFFFFFFFFFFFFFFFFFFFFFFFFFA0
:10403000FFFFFFFFFFFFFFFFFFFFFFFFFFFFFFFF90
:10404000FFFFFFFFFFFFFFFFFFFFFFFFFFFFFFFF80
:10405000FFFFFFFFFFFFFFFFFFFFFFFFFFFFFFFF70
:10406000FFFFFFFFFFFFFFFFFFFFFFFFFFFFFFFF60
:10407000FFFFFFFFFF01060D00FE09016602D620CB
:10408000FFFE0BFE0AFE0D00602219698080808011
:104090008080800080183363A0A0A0035767505031
:1040A000F850F850500259692078A0A0702828F0E4
:1040B0002002596948A85010204050A89002586822
:1040C00040A0A040A0989068281363808080113B96
:1040D0006B2040408080808080404020113B6B807E
:1040E0004040202020202040408006556520A870B8
:1040F000A8200455652020F82020113363604080FB
:10410000065161F811336340E04002596908081014
:104110001020404080800259692050888888888813
:1041200050200259692060A02020202020F8025948
:10413000697088880810204080F8025969F80810D2
:10414000207008088870025969101030505090F89B
:104150001010025969F88080B0C8080888700259A8
:104160006970888080F088888870025969F8081022
:1041700010202040404002596970888888708888E3
:1041800088700259697088888878080888701138A2
:104190006840E040000040E04011386840E04000E6
:1041A00000604080025969081020408040201008BB
:1041B000045464F80000F802596980402010081087
:1041C0002040800259697088880810202000200251
:1041D000596970888898A8A8B080780259692050D9
:1041E000888888F8888888025969F0484848704863
:1041F0004848F00259697088808080808088700209
:104200005969F048484848484848F0025969F880D8
:104210008080F0808080F8025969F8808080F0808A
:1042200080808002596970888080809888887002B8
:10423000596988888888F888888888123969E040B0
:10424000404040404040E0025969381010101010C2
:10425000109060025969888890A0C0A09088880258
:1042600059698080808080808080F80259698888C0
:10427000D8A8A88888888802596988C8C8A8A89832
:104280009888880259697088888888888888700228
:104290005969F0888888F080808080015A6A708827
:1042A0008888888888A87008025969F0888888F00A
:1042B000A09088880259697088808070080888708A
:1042C000025969F8202020202020202002596988E6
:1042D0008888888888888870025969888888885082
:1042E0005050202002596988888888A8A8A8A8501A
:1042F000025969888850502050508888025969882E
:104300008850502020202020025969F808101020E1
:10431000404080F8113B6BE080808080808080800E
:1043200080E0025969808040402010100808113B4D
:104330006BE0202020202020202020E00853632054
:104340005088015161F82A22628040025666700846
:1043500078889868025969808080F088888888F019
:10436000025666708880808870025969080808784B
:1043700088888888780256667088F8808870025924
:104380006930484040F0404040400058687088889C
:104390008878088870025969808080B0C8888888C9
:1043A000881238684000C040404040E0004A6A102F
:1043B0000030101010109090600259698080809039
:1043C000A0C0A09088123969C040404040404040A1
:1043D000E0025666D0A8A8A8A888025666B0C88889
:1043E000888888025666708888888870005868F0C7
:1043F000888888F080808000586878888888780865
:104400000808025666B0C8808080800256667088B0
:10441000601088700258684040F0404040483002C8
:1044200056668888888898680256668888885050BA
:10443000200256668888A8A8A85002566688502090
:1044400020508800586888888898680888700256C4
:1044500066F810204080F8015B6B1820202020C0F7
:104460002020202018221969808080808080808010
:1044700080015B6BC0202020201820202020C00855
:10448000536348A890FFFFFFFFFFFFFFFFFFFFFF01
:10449000FFFFFFFFFFFFFFFFFFFFFFFFFFFFFFFF2C
:1044A000FFFFFFFFFFFF0D00602219698000808081
:1044B00080808080800358682070A8A0A0A8702009
:1044C00002596930484040E0404048B00356668891
:1044D000705050708802596988885050F820F82030
:1044E00020221969808080800080808080124A6A42
:1044F000609080609090601090601A3262A0A0037B
:1045000059697088A8D8C8D8A888700457677008F7
:1045100078887800F80356662850A0A050280453E5
:1045200063F80808163161E00359697088E8D8D843
:10453000E8D888700A5161F817446460909060036D
:1045400057672020F8202000F807356540A020405C
:10455000E007356540A04020C02A22624080005814
:10456000688888888898E8808002596978E8E8E84F
:10457000E868282828262161C0202262408007356B
:104580006540C04040E0045767708888887000F834
:10459000035666A050282850A0025A6A40C04040E6
:1045A000E00818283808025A6A40C04040E0102845
:1045B000081038025A6A40A04020A048182838083D
:1045C000025969200020204080888870025A6A4081
:1045D000200020508888F88888025A6A102000201D
:1045E000508888F88888025A6A30480020508888A5
:1045F000F88888025A6A28500020508888F88888ED
:10460000025A6A50500020508888F88888025A6AF6
:1046100020502020508888F8888802596958A0A026
:10462000A0B0E0A0A0B8005B6B7088808080808024
:1046300088702040025A6A402000F88080F0808014
:10464000F8025A6A102000F88080F08080F8025A40
:104650006A304800F88080F08080F8025A6A505032
:1046600000F88080F08080F8123A6A804000E040D4
:1046700040404040E0123A6A204000E04040404064
:1046800040E0124A6A609000E04040404040E01242
:104690003A6AA0A000E04040404040E0025969F082
:1046A000484848E8484848F0025A6A285000888834
:1046B000C8A8988888025A6A40200070888888882C
:1046C0008870025A6A102000708888888888700272
:1046D0005A6A30480070888888888870025A6A2828
:1046E000500070888888888870025A6A505000701C
:1046F0008888888888700355658850205088015BB9
:104700006B08709898A8A8A8C8C87080025A6A4018
:10471000200088888888888870025A6A102000885B
:10472000888888888870025A6A3048008888888813
:10473000888870025A6A50500088888888888870F3
:10474000025A6A10200088885020202020025969CF
:1047500080F0888888F0808080025969609090A0FD
:10476000A0908888B0025969402000700878889825
:1047700068025969102000700878889868025969A1
:10478000304800700878889868025969285000708D
:10479000087888986802596950500070087888989D
:1047A00068025A6A30483000700878889868025663
:1047B00066702870A0A85000586870888080887043
:1047C00020400259694020007088F88088700259A2
:1047D000691020007088F88088700259693048009C
:1047E0007088F88088700259695050007088F8808D
:1047F0008870123969804000C040404040E0123962
:1048000069204000C040404040E01249696090008B
:10481000C040404040E0123969A0A000C040404084
:1048200040E0025A6A5020601070888888887002C0
:104830005969285000B0C888888888025969402082
:1048400000708888888870025969102000708888F4
:10485000888870025969304800708888888870029A
:1048600059692850007088888888700259695050AA
:1048700000708888888870035767202000F800201F
:1048800020015868087098A8A8C87080025969402B
:1048900020008888888898680259691020008888D4
:1048A000888898680259693048008888888898689C
:1048B000025969505000888888889868005B6B109E
:1048C00020008888889868088870005A6A8080B0BC
:1048D000C88888C8B08080005B6B5050008888888A
:1048E00098680888700000224300003E4300001FC3
:1048F00043000040C00000E0C0000000C0290A00E2
:104900002062797465733B20637263200053657481
:1049100074696E67732053746F7265642028004554
:104920004550524F4D206461746173697A6520650A
:1049300072726F722E0A00290A0020627974657300
:104940003B2063726320002073746F726564207370
:10495000657474696E6773207265747269657665D3
:1049600064202800202863616C63756C6174656441
:1049700029210A0020213D2000454550524F4D205D
:10498000435243206D69736D61746368202D202844
:1049900073746F7265642920002053697A653A2028
:1049A00000496E6465783A2000204D61726C696E32
:1049B0003D563637290A00454550524F4D20766501
:1049C0007273696F6E206D69736D617463682028FE
:1049D000454550524F4D3D00454550524F4D2049A1
:1049E0006E697469616C697A65640A004861726411
:1049F000636F6465642044656661756C74205365FB
:104A00007474696E6773204C6F616465640A002872
:104A10002300002823000064000000E803000000D9
:104A20000096430000964300000041000020420031
:104A300000C9420000C9420000C844004050443A46
:104A40000A0020204D3630332000205300205A0029
:104A500020590020580020204D3432352046004295
:104A600061636B6C61736820636F6D70656E7361F9
:104A700074696F6E3A0A002055004C0046696C61FB
:104A80006D656E74206C6F61642F756E6C6F616400
:104A9000206C656E677468733A0A00204500205ADE
:104AA0000020204D393037205800537465707065F0
:104AB00072206D6F746F722063757272656E74739D
:104AC0003A0A0020204D393030204B004C696E6589
:104AD000617220416476616E63653A0A0020204D60
:104AE000383531205A005A2D50726F6265204F665A
:104AF000667365740020440020490020204D333047
:104B00003420500020440020490020204D33303113
:104B10002050005049442073657474696E67733A7D
:104B20000A0020460020420020480020204D313459
:104B3000352053004D6174657269616C2068656150
:104B400074757020706172616D65746572733A0A74
:104B500000204A0020204732392057204900205A9F
:104B60000020204D3432302053004175746F2042B4
:104B70006564204C6576656C696E673A0A0020456D
:104B800000205A00205900205800205400205300D3
:104B900020204D32303520420020453C6D61785F49
:104BA000655F6A65726B3E0020583C6D61785F7886
:104BB0005F6A65726B3E20593C6D61785F795F6A10
:104BC00065726B3E205A3C6D61785F7A5F6A6572F0
:104BD0006B3E00416476616E6365643A20423C6DD1
:104BE000696E5F7365676D656E745F74696D655F2F
:104BF00075733E20533C6D696E5F666565647261D6
:104C000074653E20543C6D696E5F74726176656CAC
:104C10005F66656564726174653E002054002052D1
:104C20000020204D323034205000416363656C65B4
:104C3000726174696F6E2028756E6974732F733298
:104C4000293A20503C7072696E745F616363656CD1
:104C50003E20523C726574726163745F6163636588
:104C60006C3E20543C74726176656C5F6163636571
:104C70006C3E0A00204500205A0020590020204D9B
:104C80003230312058004D6178696D756D20416377
:104C900063656C65726174696F6E2028756E6974E6
:104CA000732F7332293A0A00204500205A002059F8
:104CB0000020204D3230332058004D6178696D75E9
:104CC0006D206665656472617465732028756E6910
:104CD00074732F73293A0A005374657073207065DA
:104CE0007220756E69743A0A0020204D31343920E3
:104CF00043203B20556E69747320696E2043656CB8
:104D0000736975730A0020286D6D290020204732D1
:104D100031202020203B20556E69747320696E205D
:104D20006D6D00486F6D696E67206661696C6564C2
:104D3000006F70656E005452494747455245440024
:104D40003A20007A5F6D696E00795F6D6178007955
:104D50005F6D696E00785F6D617800785F6D696E78
:104D6000005265706F7274696E6720656E6473744B
:104D70006F70207374617475730A00205A3A0020B2
:104D8000593A0020436F756E7420583A0020453A16
:104D900000205A3A0020593A00583A0020746F6FA8
:104DA000206C6F6E6720657874727573696F6E2002
:104DB00070726576656E7465640A0020636F6C645A
:104DC00020657874727573696F6E20707265766590
:104DD0006E7465640A00000040C000003E4300009D
:104DE00000C00000F0410000F041000000415761A8
:104DF000726E696E673A20486F6D696E6720427502
:104E00006D702044697669736F72203C20310A000E
:104E10000202040000A0400000A04000000040008A
:104E20000025430000454300002143FF01FF24F417
:104E3000D43050C38E20C2A24017828B7011127AD8
:104E4000910D816CD90AA861E108C75866076151C4
:104E500043061E4B5D05C145A7041A411104093DD7
:104E60009803713931034036DB0265339102D43047
:104E70005402802E1D02632CEE01752AC501B02854
:104E8000A001102781018F2564012B244B01E02212
:104E90003401AC211F018D200D01801FFC00841EF8
:104EA000ED00971DDF00B81CD200E61BC600201BDA
:104EB000BC00641AB200B219A8000A19A0006A184E
:104EC0009900D117910040178B00B5168400311658
:104ED0007E00B31579003A157300C7146F0058149B
:104EE0006A00EE1366008813630025135E00C71284
:104EF0005B006C12570015125400C1115100701163
:104F00004F0021114B00D61049008D10470046106C
:104F1000440002104200C00F4000800F3E00420FCC
:104F20003C00060F3B00CB0E3800930E37005C0EA2
:104F30003500270E3400F30D3200C10D3100900D05
:104F40003000600D2E00320D2D00050D2C00D90C07
:104F50002B00AE0C2900850C29005C0C2700350CB9
:104F600027000E0C2600E80B2400C40B2400A00B25
:104F700023007D0B23005A0B2100390B2100180B55
:104F80002000F80A1F00D90A1E00BB0A1E009D0A55
:104F90001D00800A1D00630A1C00470A1B002C0A22
:104FA0001B00110A1A00F7091A00DD091900C409CB
:104FB0001900AB091900920917007B091800630951
:104FC00017004C09160036091600200916000A09B8
:104FD0001500F5081500E0081400CC081400B80806
:104FE0001400A4081400900813007D0812006B0838
:104FF0001300580812004608120034081100230854
:1050000011001208110001081100F0071000E0075C
:105010001000D0071000C0071000B0070F00A10754
:10502000100091070E0083070F0074070F0065073B
:105030000E0057070E0049070E003B070D002E0714
:105040000E0020070D0013070D0006070D00F906DE
:105050000C00ED060D00E0060C00D4060C00C8069E
:105060000C00BC060C00B0060C00A4060B00990650
:105070000C008D060B0082060B0077060B006C06F9
:105080000B0061060A0057060B004C060A00420698
:105090000A0038060A002E060A0024060A001A062C
:1050A0000A001006090007060A00FD050900F405BC
:1050B0000900EB050900E2050900D9050900D00542
:1050C0000900C7050900BE050900B5050800AD05C2
:1050D0000800A50509009C050800940508008C053A
:1050E0000800840508007C050800740508006C05AC
:1050F0000700650508005D050700560508004E0518
:10510000070047050700400508003805070031057E
:1051100007002A050700230507001C0506001605E1
:1051200007000F0507000805060002050700FB043D
:105130000600F5040700EE040600E8040600E20499
:105140000700DB040600D5040600CF040600C904EE
:105150000600C3040600BD040600B7040600B1043F
:105160000500AC040600A6040600A00405009B048C
:10517000060095040500900406008A0405008504D5
:105180000500800406007A0405007504050070041B
:1051900005006B04050066040500610405005C045D
:1051A000050057040500520405004D04050048049D
:1051B0000500430405003E0404003A0405003504DC
:1051C0000500300404002C04050027040400230417
:1051D00005001E0404001A0404001604050011044E
:1051E00004000D0404000904050004040400000484
:1051F0000400FC030400F8030400F4030400F003BB
:105200000400EC030400E8030400E4030400E003EA
:105210000400DC030400D8030400D4030400D0031A
:105220000400CC030400C8030300C503030024F4F6
:1052300004D9201BC40C5C0E9804C4095F026507E6
:105240007101F405F900FB04B30048048700C103B1
:1052500069005803550003034500BE023A0084026A
:10526000310053022A002902250004022000E40133
:105270001C00C8011900AF01170098011400840137
:105280001300710110006101100051010E00430173
:105290000D0036010B002B010B0020010B00150146
:1052A00009000C01090003010800FB000800F300DD
:1052B0000800EB000700E4000600DE000600D8004E
:1052C0000600D2000600CC000500C7000500C200A1
:1052D0000500BD000400B9000400B5000400B100E1
:1052E0000400AD000400A9000400A5000300A20012
:1052F00003009F0004009B0003009800030095003A
:10530000020093000300900003008D0002008B0058
:105310000300880002008600020084000300810070
:1053200002007F0002007D0002007B000200790085
:105330000200770001007600020074000200720093
:105340000100710002006F0002006D0001006C009E
:1053500002006A00010069000200670001006600A7
:1053600001006500010064000200620001006100AC
:105370000100600001005F0002005D0001005C00B0
:1053800001005B0001005A000100590001005800B3
:1053900001005700010056000100550001005400B3
:1053A00001005300000053000100520001005100B1
:1053B0000100500001004F0001004E0000004E00AF
:1053C00001004D0001004C0001004B0000004B00AB
:1053D00001004A00010049000100480000004800A7
:1053E00001004700010046000000460001004500A2
:1053F000000045000100440001004300000043009C
:105400000100420000004200010041000000410094
:105410000100400001003F0000003F0001003E008D
:1054200000003E0001003D0000003D0001003C0086
:1054300000003C0000003C0001003B0000003B007D
:1054400001003A0000003A00010039000000390074
:10545000010038000000380000003800010037006B
:105460000000370001003600000036000000360062
:105470000100350000003500000035000100340057
:10548000000034000000340001003300000033004D
:105490000000330001003200000032000000320042
:1054A0000100310000003100000031000100300037
:1054B000000030000000300001002F0000002F002D
:1054C00000002F0000002F0001002E0000002E0021
:1054D00000002E0001002D0000002D0000002D0016
:1054E00000002D0001002C0000002C0000002C000A
:1054F00000002C0001002B0000002B0000002B00FE
:1055000000002B0001002A0000002A0000002A00F1
:1055100000002A00010029000000290000002900E5
:1055200000002900000029000100280000002800D8
:1055300000002800000028000000280001002700CB
:1055400000002700000027000000270000002700BF
:1055500001002600000026000000260000002600B2
:1055600000002600010025000000250000002500A5
:105570000000250000002500000025000100240097
:10558000000024000000240000002400000024008B
:10559000010023000000230000002300000023007E
:1055A000000023000000230000002300010022006F
:1055B0000000220000002200000022000000220063
:1055C0000000220001002100000021000000210055
:1055D0000000210000002100000021000000210047
:1055E000010020000000200000002000000020003A
:1055F000000020000000200000002000000020002B
:1056000001001F0000001F0000001F0000001F001D
:1056100000001F0000001F0000001F0001001E000E
:1056200000001E0000001E0000001E000000C2312D
:1056300000001C260000F4190000D80F0000EB0841
:105640000000C004000075020000400100004D6928
:1056500063726F737465707320756E617661696CC7
:1056600061626C650A0045303A20005A3A200059C0
:105670003A20004D53312C4D53322C4D5333205092
:10568000696E730A583A2000626564002C207379B1
:105690007374656D2073746F707065642120486544
:1056A000617465725F49443A200042656420686510
:1056B0006174696E67206661696C65640048656144
:1056C00074696E67206661696C65640042454420B8
:1056D000544845524D414C2052554E415741590076
:1056E000546865726D616C2052756E6177617900E6
:1056F000486F74656E642048656174696E672066E2
:1057000061696C65640048656174696E67206661F3
:10571000696C656400486F74656E64205448455236
:105720004D414C2052554E415741590054686572C5
:105730006D616C2052756E61776179001000AD0368
:1057400030016A0150022B0170030A019004F50038
:10575000B005E500D006D800F007CE001009C5005E
:10576000300ABE00500BB700700CB100900DAB00BA
:10577000B00EA600D00FA200F0109D0010129900EC
:10578000301395005014920070158E0090168B0007
:10579000B0178700D0188400F0198100101B7E001C
:1057A000301C7B00501D7900701E7600901F730026
:1057B000B0207000D0216E00F0226B001024690030
:1057C00030256600502663007027610090285E0037
:1057D000B0295C00D02A5900F02B5600102D54003F
:1057E000302E5100502F4E0070304B009031480049
:1057F000B0324500D0334200F0343E0010363B005A
:10580000303737005038330070392E00903A290075
:10581000B03B2300D03C1B00F03D1100103F0100C5
:10582000F03F0000486F74656E64204572723A2044
:105830004D415854454D50004572723A204D4158E3
:1058400054454D5020424544004D415854454D501B
:105850002074726967676572656400486F74656E6D
:1058600064204572723A204D494E54454D500045D2
:1058700072723A204D494E54454D502042454400E5
:105880004D494E54454D5020747269676765726585
:1058900064004D383420582059205A204500202FCC
:1058A000002042403A0020403A0020573A007C3C19
:1058B0003E5E2B3D3F2F5B5D3B2C2A225C00BC00F3
:1058C000500111241FBECFEFD1E2DEBFCDBF00E0FB
:1058D0000CBF13E0A0E0B2E0E6E1F3EA02E00BBFA8
:1058E00002C007900D92A43FB107D9F727E1A4EFBA
:1058F000B3E001C01D92AA3AB207E1F71CE2C0E68C
:10590000DCE200E006C021970109802FFE010F9420
:10591000DA4DCF35D10780E00807A9F70F94C93DCC
:105920000D9479510C940000089590E080E0089562
:1059300090914507E92FF0E0E858FC4E80839F5F87
:10594000953040F49093450780912A098F5F8093AA
:105950002A09089510924507F7CF4F925F926F92F0
:105960007F928F929F92AF92BF92CF92DF92EF92EF
:10597000FF92CF934B015C0169017A0120E030E096
:1059800040E152E4C701B6010F94EA4D2B013C01FE
:1059900022ED30E040EE50EC0F944A5087FD50C0AD
:1059A00027E030E04EE353E4C301B2010F945049C5
:1059B00018160CF445C020E030E04CE352E4C50179
:1059C000B4010F94E94D2B013C0123EA31E040E49E
:1059D00050EC0F944A5087FD33C027E030E042E29C
:1059E00053E4C301B2010F94504918164CF126EE4E
:1059F0003FEF47E452E4C501B4010F944A5087FDDC
:105A00001FC027E030E041E153E4C501B4010F9429
:105A100050491816ACF027E93FEF4FE151E4C701B8
:105A2000B6010F944A5087FD0BC0C1E027E030E07B
:105A300041E153E4C701B6010F94504918160CF424
:105A4000C0E08C2FCF91FF90EF90DF90CF90BF9070
:105A5000AF909F908F907F906F905F904F90089540
:105A6000DC0112964D915D916D917C911597ED91B0
:105A7000FC91408351836283738308959C018CE081
:105A8000E7E8F2E0D90101900D928A95E1F798E0FC
:105A9000E3E9F2E0D901A05CBF4F01900D929A9525
:105AA000E1F708952FEB280F2A3108F042C0E22FCA
:105AB000F0E08091A0049091A104A091A204B09183
:105AC000A30404C0B695A795979587952A95D2F714
:105AD00080FD02C081700895EA57FB4FE081EE23FC
